{
  "_format": "hh-sol-artifact-1",
  "contractName": "Voting",
  "sourceName": "contracts/voting.sol",
  "abi": [
    {
      "inputs": [
        {
          "internalType": "bytes32[]",
          "name": "candidateNames",
          "type": "bytes32[]"
        }
      ],
      "stateMutability": "nonpayable",
      "type": "constructor"
    },
    {
      "anonymous": false,
      "inputs": [
        {
          "indexed": true,
          "internalType": "bytes32",
          "name": "candidate",
          "type": "bytes32"
        },
        {
          "indexed": false,
          "internalType": "uint256",
          "name": "newTotal",
          "type": "uint256"
        }
      ],
      "name": "VoteCast",
      "type": "event"
    },
    {
      "inputs": [
        {
          "internalType": "uint256",
          "name": "",
          "type": "uint256"
        }
      ],
      "name": "candidateList",
      "outputs": [
        {
          "internalType": "bytes32",
          "name": "",
          "type": "bytes32"
        }
      ],
      "stateMutability": "view",
      "type": "function"
    },
    {
      "inputs": [
        {
          "internalType": "bytes32",
          "name": "candidate",
          "type": "bytes32"
        }
      ],
      "name": "totalVotesFor",
      "outputs": [
        {
          "internalType": "uint256",
          "name": "",
          "type": "uint256"
        }
      ],
      "stateMutability": "view",
      "type": "function"
    },
    {
      "inputs": [
        {
          "internalType": "bytes32",
          "name": "candidate",
          "type": "bytes32"
        }
      ],
      "name": "validCandidate",
      "outputs": [
        {
          "internalType": "bool",
          "name": "",
          "type": "bool"
        }
      ],
      "stateMutability": "view",
      "type": "function"
    },
    {
      "inputs": [
        {
          "internalType": "bytes32",
          "name": "candidate",
          "type": "bytes32"
        }
      ],
      "name": "voteForCandidate",
      "outputs": [],
      "stateMutability": "nonpayable",
      "type": "function"
    },
    {
      "inputs": [
        {
          "internalType": "bytes32",
          "name": "",
          "type": "bytes32"
        }
      ],
      "name": "votesReceived",
      "outputs": [
        {
          "internalType": "uint256",
          "name": "",
          "type": "uint256"
        }
      ],
      "stateMutability": "view",
      "type": "function"
    }
  ],
  "bytecode": "0x60806040523480156200001157600080fd5b50604051620008c8380380620008c883398181016040528101906200003791906200028c565b80600190805190602001906200004f92919062000057565b5050620002dd565b82805482825590600052602060002090810192821562000096579160200282015b828111156200009557825182559160200191906001019062000078565b5b509050620000a59190620000a9565b5090565b5b80821115620000c4576000816000905550600101620000aa565b5090565b6000604051905090565b600080fd5b600080fd5b600080fd5b6000601f19601f8301169050919050565b7f4e487b7100000000000000000000000000000000000000000000000000000000600052604160045260246000fd5b6200012c82620000e1565b810181811067ffffffffffffffff821117156200014e576200014d620000f2565b5b80604052505050565b600062000163620000c8565b905062000171828262000121565b919050565b600067ffffffffffffffff821115620001945762000193620000f2565b5b602082029050602081019050919050565b600080fd5b6000819050919050565b620001bf81620001aa565b8114620001cb57600080fd5b50565b600081519050620001df81620001b4565b92915050565b6000620001fc620001f68462000176565b62000157565b90508083825260208201905060208402830185811115620002225762000221620001a5565b5b835b818110156200024f57806200023a8882620001ce565b84526020840193505060208101905062000224565b5050509392505050565b600082601f830112620002715762000270620000dc565b5b815162000283848260208601620001e5565b91505092915050565b600060208284031215620002a557620002a4620000d2565b5b600082015167ffffffffffffffff811115620002c657620002c5620000d7565b5b620002d48482850162000259565b91505092915050565b6105db80620002ed6000396000f3fe608060405234801561001057600080fd5b50600436106100575760003560e01c80632f265cf71461005c578063392e66781461008c5780637021939f146100bc578063b13c744b146100ec578063cc9ab2671461011c575b600080fd5b61007660048036038101906100719190610334565b610138565b604051610083919061037a565b60405180910390f35b6100a660048036038101906100a19190610334565b61019c565b6040516100b391906103b0565b60405180910390f35b6100d660048036038101906100d19190610334565b6101fe565b6040516100e3919061037a565b60405180910390f35b610106600480360381019061010191906103f7565b610216565b6040516101139190610433565b60405180910390f35b61013660048036038101906101319190610334565b61023a565b005b60006101438261019c565b610182576040517f08c379a0000000000000000000000000000000000000000000000000000000008152600401610179906104ab565b60405180910390fd5b600080838152602001908152602001600020549050919050565b600080600090505b6001805490508110156101f35782600182815481106101c6576101c56104cb565b5b9060005260206000200154036101e05760019150506101f9565b80806101eb90610529565b9150506101a4565b50600090505b919050565b60006020528060005260406000206000915090505481565b6001818154811061022657600080fd5b906000526020600020016000915090505481565b6102438161019c565b610282576040517f08c379a0000000000000000000000000000000000000000000000000000000008152600401610279906104ab565b60405180910390fd5b600160008083815260200190815260200160002060008282546102a59190610571565b92505081905550807fd10f6697fe785cf6ab300b0a28e7b2403b8742966ec5535806af5b24613611a4600080848152602001908152602001600020546040516102ee919061037a565b60405180910390a250565b600080fd5b6000819050919050565b610311816102fe565b811461031c57600080fd5b50565b60008135905061032e81610308565b92915050565b60006020828403121561034a576103496102f9565b5b60006103588482850161031f565b91505092915050565b6000819050919050565b61037481610361565b82525050565b600060208201905061038f600083018461036b565b92915050565b60008115159050919050565b6103aa81610395565b82525050565b60006020820190506103c560008301846103a1565b92915050565b6103d481610361565b81146103df57600080fd5b50565b6000813590506103f1816103cb565b92915050565b60006020828403121561040d5761040c6102f9565b5b600061041b848285016103e2565b91505092915050565b61042d816102fe565b82525050565b60006020820190506104486000830184610424565b92915050565b600082825260208201905092915050565b7f566f74696e673a20696e76616c69642063616e64696461746500000000000000600082015250565b600061049560198361044e565b91506104a08261045f565b602082019050919050565b600060208201905081810360008301526104c481610488565b9050919050565b7f4e487b7100000000000000000000000000000000000000000000000000000000600052603260045260246000fd5b7f4e487b7100000000000000000000000000000000000000000000000000000000600052601160045260246000fd5b600061053482610361565b91507fffffffffffffffffffffffffffffffffffffffffffffffffffffffffffffffff8203610566576105656104fa565b5b600182019050919050565b600061057c82610361565b915061058783610361565b925082820190508082111561059f5761059e6104fa565b5b9291505056fea2646970667358221220117af5366f69ed1e47a9031bfe346bd701b98b4aa2a0e6dcf2bd74741cc055da64736f6c63430008130033",
  "linkReferences": {},
  "deployedLinkReferences": {}
}